:020000040000FA
:1000000068060010A9010000B1010000B301000062
:10001000B5010000B7010000B901000000000000B8
:10002000000000000000000000000000BB01000014
:10003000BD01000000000000BF010000C101000080
:10004000C3010000C3010000C3010000C3010000A0
:10005000C3010000C3010000C3010000C301000090
:10006000C3010000C3010000C3010000C301000080
:10007000C3010000C3010000C3010000C301000070
:10008000C3010000C3010000C3010000C301000060
:10009000C3010000C3010000C3010000C301000050
:1000A000C3010000C3010000C3010000C301000040
:1000B000C3010000C3010000C3010000C301000030
:1000C000C3010000C3010000C301000000F002F8FA
:1000D00000F05AF80AA090E8000C82448344AAF188
:1000E0000107DA4501D100F04FF8AFF2090EBAE886
:1000F0000F0013F0010F18BFFB1A43F0010318475C
:10010000240B0000440B00000A444FF0000C10F8D0
:10011000013B13F0070408BF10F8014B1D1108BF85
:1001200010F8015B641E05D010F8016B641E01F825
:10013000016BF9D113F0080F1EBF10F8014BAD1C75
:100140000C1B09D16D1E58BF01F801CBFAD505E093
:1001500014F8016B01F8016B6D1EF9D59142D6D3ED
:10016000704700000023002400250026103A28BF15
:1001700078C1FBD8520728BF30C148BF0B60704719
:100180001FB51FBD10B510BD00F02FF81146FFF7C9
:10019000F7FF00F011FC00F04DF803B4FFF7F2FF99
:1001A00003BC00F055F800000948804709480047A3
:1001B000FEE7FEE7FEE7FEE7FEE7FEE7FEE7FEE717
:1001C000FEE7FEE704480549034A054B7047000077
:1001D0007D070000CD0000006804001068060010D4
:1001E00068040010704770477047754600F02CF89F
:1001F000AE4605006946534620F00700854618B014
:1002000020B5FFF7DFFFBDE820404FF000064FF0BC
:1002100000074FF000084FF0000B21F00701AC463B
:10022000ACE8C009ACE8C009ACE8C009ACE8C0095A
:100230008D46704710B50446AFF300802046BDE8F8
:100240001040FFF7AABF00000048704708040010E4
:1002500001491820ABBEFEE72600020070472DE9D9
:10026000F05F06460F46904699460A9C002517E027
:1002700008EB0500C1B2384600F0CAF84FF0000A9A
:100280000AE03046761C00F011F9834600F026FAA9
:100290000AF1010000F0FF0ACA45F2DB681CC5B292
:1002A000E11704EB5171B5EBE10FE1DBBDE8F09F25
:1002B00070B500240EE02146002000F0A9F80025CA
:1002C00004E0002000F00AFA681CC5B2802DF8DBBB
:1002D000601CC4B2082CEEDB70BD704710B500F096
:1002E000D3F8002405E021463F2000F0C9F9601C46
:1002F000C4B2032CF7DB10BD00000000FFFFFFFFBE
:100300002DE9F05F06460F469046444600254FEA29
:100310004800C0F101094FF0010BAA4644E07A19E8
:10032000D1B23219D0B2012200F05BF97A19D1B200
:10033000321BD0B2012200F054F97A1BD1B2321B29
:10034000D0B2012200F04DF97A1BD1B23219D0B2ED
:10035000012200F046F93A19D1B27219D0B2012245
:1003600000F03FF93A19D1B2721BD0B2012200F06D
:1003700038F93A1BD1B2721BD0B2012200F031F928
:100380003A1BD1B27219D0B2012200F02AF96D1CC9
:10039000DA440BF1020B022000FB0A90002803DD77
:1003A000641ECA4409F10209AC42B8DABDE8F09F04
:1003B00020B1012807D002280ED109E04FF48011A6
:1003C000064A916308E04FF40021044A916303E078
:1003D0000021024A916300BF00BF704700C009209E
:1003E00020B1012807D002280ED109E04FF4801176
:1003F000064AD16308E04FF40021044AD16303E0C8
:100400000021024AD16300BF00BF704700C009202D
:100410002DE9F04104460E4619480470194806704B
:1004200000270EE03946402000F02AF946F0B800D7
:10043000394600F025F93946C02000F021F9781C32
:10044000C7B2022FEEDB2546E21704EB9262C2F33D
:100450008711A046E21704EB92629211A4EB82127C
:10046000D2B242F0400000F00BF9E21704EB9262C6
:10047000C2F3871146F0B80000F002F9BDE8F08140
:1004800000040010010400100748006A40F4F8104E
:10049000054908624FF4C01088630846006840F4BC
:1004A0007F0008607047000000C0092001460878FE
:1004B0007047000030B500BF1C490D78E91705EB07
:1004C0009161881100F036F800F080000028F3D127
:1004D0001748006820F47F00154908604FF4C020D9
:1004E000886312490B78D91703EB91618811FFF7E4
:1004F00077FF4FF480300E498863FFF7EEFE0C481B
:100500004069C0F307444FF480300949C863074984
:100510000B78D91703EB91618811FFF749FF034866
:100520000078401C01490870204630BD00040010CE
:1005300000C0092010B503461048006820F47F0071
:100540000E4908604FF4003088634000C8631846C5
:10055000FFF746FF4FF4803008498863FFF7BDFE80
:1005600006484069C0F307444FF480300349C8632C
:100570001846FFF71DFF204610BD000000C00920EF
:100580002DE9F04105460E461746984600240FE037
:100590003019C1B20122284600F023F83219D1B235
:1005A000EA19521ED0B2012200F01BF8601CC4B23E
:1005B0004445EDDB002410E02919C8B20122314680
:1005C00000F00FF806EB0802521ED1B22A19D0B281
:1005D000012200F006F8601CC4B2BC42ECDBBDE8AE
:1005E000F0812DE9F04107460C4690462646E0177B
:1005F00004EB5070C0F3C7013846FFF709FFFFF75F
:1006000059FF05462646E01704EB5070C0F3C701BA
:100610003846FFF7FDFEFFF74DFF0546E01704EBF8
:100620005070C0F3C7013846FFF7F2FE2046E117CD
:1006300004EB5171C910A4EBC1020121914029437F
:10064000CDB2284600F04AF8BDE8F08170B5044606
:10065000A4F12000C4B200250AE00849052202FBEB
:1006600004114819FFF722FF064600F037F86D1C09
:10067000052DF2DB002000F031F870BD440A0000C7
:1006800030B504460D4600BF2846FFF753FF00F083
:1006900080000028F8D11048006840F47F000E491F
:1006A00008604FF4C020C8632846FFF799FE200475
:1006B0000949886184F0FF042004C8614FF4803048
:1006C0008863FFF70AFE4FF480300349C863284669
:1006D000FFF76EFE30BD000000C0092030B50446B3
:1006E00000BF1E490D78E91705EB91618811FFF7EE
:1006F00021FF00F080000028F3D11948006840F481
:100700007F00174908604FF40030C86340008863D9
:100710002004886184F0FF042004C8610F490B782D
:10072000D91703EB91618811FFF75AFE4FF480301F
:100730000B498863FFF7D1FD4FF480300849C86347
:1007400006490B78D91703EB91618811FFF730FE4A
:1007500002480078401C0149087030BD00040010B8
:1007600000C0092010B5044603E014F8010BFFF7A0
:100770006DFF20780028F8D110BD000020208149AD
:10078000086000BF7F48006800F040000028F9D0F2
:1007900003207C499C39086000207B49C1F8A801EE
:1007A00078490C31086001207649943908600B20A3
:1007B0007549843108600120091F0860AA20724928
:1007C0008C31086055207049C1F88C0000BF6E481C
:1007D0008830006800F080600028F8D003206A4963
:1007E00080310860AA206849C1F88C00552066490C
:1007F0008C31086023206449A43108600120091F5E
:100800000860AA206049AC3108605520086000BF2C
:100810005D48A830006800F480600028F8D003200C
:100820005949A0310860AA205749C1F8AC005520A9
:100830005549AC31086055485349C431086000201F
:100840005149C1F8C8010846D0F88800C0F30160DA
:10085000032860D14B489438006800F0030030B1A1
:10086000012820D0022839D0032853D100E000BF4E
:10087000454888300068C0F30E00401C41004248E3
:10088000D0F88800C0F30740401CB1FBF0F04049AD
:1008900048433C499C390968C9B2491CB0FBF1F096
:1008A0003C49086036E0384888300068C0F30E00E4
:1008B000401C41003448D0F88800C0F30740401C79
:1008C000B1FBF0F0344948432E499C390968C9B25C
:1008D000491CB0FBF1F02F4908601BE02A48883022
:1008E0000068C0F30E00401C41002748D0F8880083
:1008F000C0F30740401CB1FBF0F04FF4FA4148430D
:1009000020499C390968C9B2491CB0FBF1F0214962
:10091000086000BF30E01B489438006800F0030016
:1009200030B1012810D0022819D0032823D100E0CB
:1009300000BF14489C380068C0B2401C1449B1FB89
:10094000F0F01449086016E00E489C380068C0B208
:10095000401C1149B1FBF0F00E4908600BE009485A
:100960009C380068C0B2401C4FF4FA41B1FBF0F073
:100970000849086000BF00BF43F23A00024908601E
:1009800070470000A0C10F4000C00F40DE87280460
:1009900000093D0004040010001BB700002107E01F
:1009A000002200E0521C44F620639A42FAD3491C0C
:1009B0008142F5D37047000008B5FFF7DFFEFFF76F
:1009C0008DFCFFF775FC31E0282346220C211E2008
:1009D000FFF7D6FD4FF4FA60FFF7E0FFFFF768FC82
:1009E0001C2220214020FFF78BFC4FF4FA60FFF718
:1009F000D5FFFFF75DFC00210846FFF709FD0CA0BD
:100A0000FFF7B0FE4FF4FA60FFF7C8FFFFF750FCA6
:100A1000402080230022114600900948FFF71FFC68
:100A20004FF4FA60FFF7BAFFFFF742FCCCE7000093
:100A300054455354494E4720474C4344000000005E
:100A400000000010000000000000005F0000000730
:100A5000000700147F147F14242A7F2A122313080E
:100A6000646236495522500005030000001C2241F3
:100A7000000041221C00082A1C2A0808083E080819
:100A8000005030000008080808080030300000203E
:100A9000100804023E5149453E00427F4000426139
:100AA0005149462141454B311814127F10274545C5
:100AB00045393C4A494930017109050336494949DC
:100AC00036064949291E0036360000005636000019
:100AD00000081422411414141414412214080002B2
:100AE00001510906324979413E7E1111117E7F493B
:100AF0004949363E414141227F4141221C7F4949BB
:100B000049417F090901013E414151327F080808EE
:100B10007F00417F41002040413F017F0814224176
:100B20007F404040407F0204027F7F0408107F3EE8
:100B30004141413E7F090909063E4151215E7F093D
:100B4000192946464949493101017F01013F404089
:100B5000403F1F2040201F7F2018207F631408146F
:100B6000630304780403615149454300007F414118
:100B7000020408102041417F0000040201020440E9
:100B800040404040000102040020545454787F4803
:100B90004444383844444420384444487F3854540A
:100BA0005418087E090102081454543C7F080404B8
:100BB0007800447D40002040443D00007F102844E0
:100BC00000417F40007C041804787C0804047838D5
:100BD000444444387C14141408081414187C7C0809
:100BE0000404084854545420043F4440203C4040EE
:100BF000207C1C2040201C3C4030403C44281028D5
:100C0000440C5050503C4464544C4400083641005D
:100C100000007F0000004136080008082A1C080870
:100C20001C2A0808440C0000000000100804000002
:100C300008010000AC0D0000080400106002000074
:100C400064010000014C6AC001914A8010021B80BF
:100C50005A8001A90C490EB911C9439918691B1989
:100C6000086AFF0179183B8F9F010A198F3A4932B0
:100C7000321F4BE0FC0C153F0F07017EC0E0F0FC7B
:100C8000FE511901511FF0F8F8FCFCFE182A1F0153
:100C9000791BAC10181E10391E2945595D293D4994
:100CA0003A591CA955397219702AF809DD7F1F07B6
:100CB000037A1C7F3F3F4C53070379162AF801192A
:100CC0001D291E29BCC91E918911B91CC9801E7F0E
:100CD0000780F0FE687B0FC37A1958280A1F0F0F90
:100CE00087C3C1E1E0F0BA19F3C9622A81014BE17F
:100CF000E001092B801A8001A929180B7F0FC0F889
:100D00003FCFE7F1FCFE7518089F9FCFE7E3F3F1B3
:100D1000721B7E7EDB19DC1987570F0F07878783CD
:100D200019109901191995070303017919F912D9B5
:100D30003AA980281960323F1E0F171B1B4D6E6E9B
:100D40006767677373737179797878787C011A7E35
:100D5000015A7F016114F0F0201EC0E0A0E0C0063F
:100D60001320201CF8F8200B2BE0E00619111906BF
:100D70005BF8F809290612E07BECEC2F93A0201910
:100D8000DA490101312C030704044A0406118B07D8
:100D9000070319118B0703095E1A1F151D0C0F1984
:0C0DA0002A1B040514011813093D000073
:04000005000001A94D
:00000001FF
